:100000000C942A000C9447000C9447000C94470071
:100010000C94F60D0C94C30D0C9447000C94900DA9
:100020000C9447000C945D0D0C942A0D0C94F70C65
:100030000C9447000C9447000C9447000C94470024
:100040000C9447000C9447000C9447000C94470014
:100050000C94470011241FBECFE5D8E0DEBFCDBF12
:1000600010E0A0E6B0E0E8E8F3E202C005900D92EF
:10007000AE37B107D9F710E0AEE7B0E001C01D928E
:10008000A139B107E1F70E94AB090C94C2110C949D
:100090000000EF92FF920F931F937B018C0120E0F1
:1000A00030E040E05FE40E94490388238CF0C801FF
:1000B000B70120E030E040E05FE40E94C1010E940F
:1000C000A9039B01AC01205030404040504806C07D
:1000D000C801B7010E94A9039B01AC01B901CA0183
:1000E0001F910F91FF90EF900895A0E0B0E0EBE733
:1000F000F0E00C948B11DC012B01FA019C91923001
:1001000008F439C1EB018881823008F433C194309E
:1001100069F4843009F02FC111969C91119789815F
:10012000981709F428C1A0E6B0E025C1843009F48D
:1001300021C18230A9F4923009F01DC19A01AD01AC
:1001400088E0EA010990AE01E90109929E0181501F
:10015000C1F7E201898111969C918923818308C1AD
:10016000923009F407C112962D903C901397EB0141
:100170008A819B811496AD90BD90CD90DC901797AD
:10018000EC80FD800E811F819101281B390BB90184
:1001900037FF04C066277727621B730B6032710537
:1001A0000CF061C0121613066CF537014801062EDB
:1001B00004C096948794779467940A94D2F721E0C8
:1001C00030E040E050E004C0220F331F441F551FB1
:1001D0006A95D2F721503040404050402E213F21B7
:1001E00040235123211531054105510521F021E01E
:1001F00030E040E050E079018A01E628F72808293C
:1002000019293CC0232BD1F1260E371E350146019A
:10021000062E04C096948794779467940A94D2F734
:1002200021E030E040E050E004C0220F331F441FC3
:10023000551F6A95D2F721503040404050402A2146
:100240003B214C215D21211531054105510521F04E
:1002500021E030E040E050E059016A01A628B728CB
:10026000C828D9280BC0821593052CF01C01AA249C
:10027000BB24650103C0EE24FF24870111969C91E5
:10028000D20111968C91981709F445C0992339F041
:10029000A80197012A193B094C095D0906C0A6016E
:1002A00095012E193F09400B510B57FD08C01182D3
:1002B0003382228224833583468357831DC081E0A5
:1002C00081833382228288279927DC01821B930B4A
:1002D000A40BB50B84839583A683B7830DC0220F2F
:1002E000331F441F551F24833583468357838281E0
:1002F000938101979383828324813581468157813D
:10030000DA01C9010197A109B1098F5F9F4FAF4F72
:10031000BF4328F30BC0918333822282EA0CFB1C7B
:100320000C1D1D1DE482F5820683178383E0808304
:10033000248135814681578157FF1AC0C901AA27F8
:1003400097FDA095BA2F81709070A070B0705695EF
:10035000479537952795822B932BA42BB52B848318
:100360009583A683B7838281938101969383828349
:10037000DF0101C0D201CD01CDB7DEB7E2E10C94BF
:10038000A711A0E2B0E0E7ECF1E00C9497116983CB
:100390007A838B839C832D833E834F835887E9E048
:1003A000EE2EF12CEC0EFD1ECE010196B7010E943F
:1003B000D2048E010F5E1F4FCE010596B8010E9438
:1003C000D2048A8991E089278A8BC701B801AE01DE
:1003D000475E5F4F0E9475000E94FD03A096E6E015
:1003E0000C94B311A0E2B0E0E8EFF1E00C949711A7
:1003F00069837A838B839C832D833E834F835887C5
:10040000F9E0EF2EF12CEC0EFD1ECE010196B701A6
:100410000E94D2048E010F5E1F4FCE010596B801D7
:100420000E94D204C701B801AE01475E5F4F0E942F
:1004300075000E94FD03A096E6E00C94B311A0E2C3
:10044000B0E0E5E2F2E00C948B1169837A838B8350
:100450009C832D833E834F835887CE010196BE0136
:10046000675F7F4F0E94D204CE010596BE016F5E8A
:100470007F4F0E94D2049985923088F0898982301A
:10048000C8F0943019F4823051F404C0843029F457
:10049000923081F480E690E0C6C0923049F420E0CA
:1004A0009A858A89981321E02A87CE010996BBC0D4
:1004B000823049F420E09A858A89981321E02A8BBA
:1004C000CE014196B0C02D843E844F8458886D88FB
:1004D0007E888F88988CEE24FF248701AA24BB2471
:1004E000650140E050E060E070E0E0E0F0E0C10174
:1004F00081709070892BE9F0E60CF71C081D191D1E
:100500009A01AB012A0D3B1D4C1D5D1D80E090E062
:10051000A0E0B0E0E614F7040805190520F481E036
:1005200090E0A0E0B0E0BA01A901480F591F6A1F8E
:100530007B1FAA0CBB1CCC1CDD1C97FE08C081E0F5
:1005400090E0A0E0B0E0A82AB92ACA2ADB2A3196B6
:10055000E032F10549F0660C771C881C991C569412
:10056000479437942794C3CFFA85EA892B893C892D
:100570008B859C85280F391F2E5F3F4F17C0CA01FE
:1005800081709070892B61F016950795F794E79428
:1005900080E090E0A0E0B0E8E82AF92A0A2B1B2BC3
:1005A00076956795579547952F5F3F4F77FDE7CF36
:1005B0000CC0440F551F661F771F17FD4160EE0CDE
:1005C000FF1C001F111F21503040403090E05907A0
:1005D00090E0690790E4790760F32B8F3C8FDB0193
:1005E000CA018F779070A070B07080349105A1051A
:1005F000B10561F447FD0AC0E114F10401051105DC
:1006000029F0405C5F4F6F4F7F4F40781A8EFE1786
:1006100011F081E08A8F4D8F5E8F6F8F78A383E01A
:10062000898FCE0149960E94FD03A096E2E10C94C9
:10063000A711A8E1B0E0EFE1F3E00C949711698312
:100640007A838B839C832D833E834F83588789E0F5
:10065000E82EF12CEC0EFD1ECE010196B7010E9492
:10066000D2048E010F5E1F4FCE010596B8010E9485
:10067000D2048985823040F08989823028F0C70110
:10068000B8010E944A0501C08FEF6896E6E00C941D
:10069000B311A8E1B0E0EFE4F3E00C9497116983A3
:1006A0007A838B839C832D833E834F83588789E095
:1006B000E82EF12CEC0EFD1ECE010196B7010E9432
:1006C000D2048E010F5E1F4FCE010596B8010E9425
:1006D000D2048985823040F08989823028F0C701B0
:1006E000B8010E944A0501C08FEF6896E6E00C94BD
:1006F000B311A8E1B0E0EFE7F3E00C949711698340
:100700007A838B839C832D833E834F83588789E034
:10071000E82EF12CEC0EFD1ECE010196B7010E94D1
:10072000D2048E010F5E1F4FCE010596B8010E94C4
:10073000D2048985823040F08989823028F0C7014F
:10074000B8010E944A0501C081E06896E6E00C9479
:10075000B311ACE0B0E0EFEAF3E00C949B116983D5
:100760007A838B839C83CE010196BE016B5F7F4FA2
:100770000E94D2048D81823061F1823050F1843048
:1007800021F48E81882351F12EC02F81388537FDC9
:1007900020C06E812F3131051CF06623F9F023C093
:1007A0008EE190E0821B930B29853A854B855C8511
:1007B00004C056954795379527958A95D2F76623B5
:1007C000B1F050954095309521953F4F4F4F5F4F79
:1007D0000EC020E030E040E050E009C02FEF3FEFD6
:1007E0004FEF5FE704C020E030E040E050E8B9019F
:1007F000CA012C96E2E00C94B711DF92EF92FF92BF
:100800000F931F93FC01E480F58006811781D1804E
:100810008081823048F480E090E0A0E1B0E0E82AF6
:10082000F92A0A2B1B2BA5C0843009F49FC0823003
:1008300021F4EE24FF24870105C0E114F104010531
:10084000110519F4E0E0F0E096C0628173819FEF3A
:10085000623879070CF05BC022E83FEF261B370BAC
:100860002A3131052CF020E030E040E050E02AC091
:10087000B801A701022E04C0769567955795479554
:100880000A94D2F781E090E0A0E0B0E004C0880FC5
:10089000991FAA1FBB1F2A95D2F70197A109B10979
:1008A0008E219F21A023B1230097A105B10521F03E
:1008B00081E090E0A0E0B0E09A01AB01282B392B59
:1008C0004A2B5B2BDA01C9018F779070A070B07052
:1008D00080349105A105B10539F427FF09C0205CDA
:1008E0003F4F4F4F5F4F04C0215C3F4F4F4F5F4F13
:1008F000E0E0F0E02030A0E03A07A0E04A07A0E402
:100900005A0710F0E1E0F0E079018A0127C0603871
:10091000710564F5FB01E158FF4FD801C7018F77DE
:100920009070A070B07080349105A105B10539F4C4
:10093000E7FE0DC080E490E0A0E0B0E004C08FE3EB
:1009400090E0A0E0B0E0E80EF91E0A1F1B1F17FFA1
:1009500005C016950795F794E794319687E01695AC
:100960000795F794E7948A95D1F705C0EE24FF2404
:100970008701EFEFF0E06E2F679566276795902F60
:100980009F77D794DD24D7948E2F8695492F462BB9
:10099000582F5D29B701CA011F910F91FF90EF9069
:1009A000DF900895FC01DB01408151812281622F9B
:1009B0006F7770E0221F2227221F9381892F880FD3
:1009C000822B282F30E0991F9927991F11969C930D
:1009D000119721153105A9F54115510561057105DD
:1009E00011F482E037C082E89FEF13969C938E93B8
:1009F00012979A01AB0167E0220F331F441F551F66
:100A00006A95D1F783E08C930DC0220F331F441FEA
:100A1000551F12968D919C911397019713969C9355
:100A20008E931297203080E0380780E0480780E4FA
:100A3000580758F314962D933D934D935C93179755
:100A400008952F3F310579F4411551056105710570
:100A500019F484E08C93089564FF03C081E08C93C3
:100A600012C01C9210C02F57304013963C932E9307
:100A7000129783E08C9387E0440F551F661F771F02
:100A80008A95D1F7706414964D935D936D937C9322
:100A9000179708951F93DC01FB019C91923008F495
:100AA00047C08081823008F443C0943051F41196DD
:100AB0001C91843099F58181682F70E0611B710968
:100AC0003FC0843021F0923031F48230B9F181811D
:100AD000882389F12DC011961C9111978230F1F075
:100AE00081811817D9F412962D913C911397828128
:100AF00093818217930794F028173907BCF0149656
:100B00008D919D910D90BC91A02D248135814681C0
:100B10005781281739074A075B0718F4112341F05A
:100B20000AC082179307A407B50740F4112319F0F0
:100B300061E070E005C06FEF7FEF02C060E070E041
:100B4000CB011F910895DF93CF93CDB7DEB782E03D
:100B500062E041E00E946D0682E062E040E00E94B7
:100B60005807CF91DF910895DF93CF93CDB7DEB7CC
:100B700082E062E041E00E945807CF91DF91089542
:100B8000DF93CF93CDB7DEB782E062E040E00E9412
:100B90005807CF91DF910895DF93CF9300D000D015
:100BA000CDB7DEB79A8389836B830E94EB0F0E94D7
:100BB0004310883011F01C8228C089819A8180708E
:100BC0009770880F892F881F990B9195806A0E94D2
:100BD00006100E944310883111F01C8216C08981D2
:100BE0000E9406100E944310883211F01C820DC032
:100BF0008B810E9406100E944310883211F01C82E3
:100C000004C00E94FB0F81E08C838C810F900F90B9
:100C10000F900F90CF91DF910895DF93CF9300D085
:100C200000D00F92CDB7DEB79A8389837C836B8324
:100C30000E94EB0F0E944310883011F01D8244C0C7
:100C400089819A8180709770880F892F881F990BEE
:100C50009195806A0E9406100E944310883111F01D
:100C60001D8232C089810E9406100E944310883282
:100C700011F01D8229C00E94EB0F0E9443108031A9
:100C800011F01D8221C089819A8180709770880F30
:100C9000892F881F990B9195816A0E9406100E94E6
:100CA0004310803411F01D820FC00E943010EB8180
:100CB000FC8180830E944310883511F01D8204C09E
:100CC0000E94FB0F81E08D838D810F900F900F901C
:100CD0000F900F90CF91DF910895DF93CF9300D0C5
:100CE00000D00F92CDB7DEB789836A834B838A81A8
:100CF000883008F0D5C08981843008F0D1C089815E
:100D0000282F30E03D832C838C819D81813091059B
:100D100009F443C02C813D81223031052CF48C81B3
:100D20009D81009771F0BCC02C813D81223031053E
:100D300009F45FC08C819D818330910509F485C0E1
:100D4000AFC08B818130A1F4AAE3B0E0EAE3F0E028
:100D50008081482F8A81282F30E081E090E0022EA8
:100D600002C0880F991F0A94E2F7842B8C9398C0D5
:100D7000AAE3B0E0EAE3F0E08081482F8A81282FDF
:100D800030E081E090E0022E02C0880F991F0A94A3
:100D9000E2F7809584238C9383C08B818130A1F40A
:100DA000A7E3B0E0E7E3F0E08081482F8A81282FB5
:100DB00030E081E090E0022E02C0880F991F0A9473
:100DC000E2F7842B8C936CC0A7E3B0E0E7E3F0E09C
:100DD0008081482F8A81282F30E081E090E0022E28
:100DE00002C0880F991F0A94E2F7809584238C93A0
:100DF00057C08B818130A1F4A4E3B0E0E4E3F0E0DC
:100E00008081482F8A81282F30E081E090E0022EF7
:100E100002C0880F991F0A94E2F7842B8C9340C07C
:100E2000A4E3B0E0E4E3F0E08081482F8A81282F3A
:100E300030E081E090E0022E02C0880F991F0A94F2
:100E4000E2F7809584238C932BC08B818130A1F4B1
:100E5000A1E3B0E0E1E3F0E08081482F8A81282F10
:100E600030E081E090E0022E02C0880F991F0A94C2
:100E7000E2F7842B8C9314C0A1E3B0E0E1E3F0E04F
:100E80008081482F8A81282F30E081E090E0022E77
:100E900002C0880F991F0A94E2F7809584238C93EF
:100EA0000F900F900F900F900F90CF91DF910895BA
:100EB000DF93CF9300D000D00F92CDB7DEB78983F8
:100EC0006A834B838A81883008F0D5C08981843059
:100ED00008F0D1C08981282F30E03D832C838C819C
:100EE0009D818130910509F443C02C813D812230E0
:100EF00031052CF48C819D81009771F0BCC02C8150
:100F00003D812230310509F45FC08C819D818330A1
:100F1000910509F485C0AFC08B818130A1F4ABE3AA
:100F2000B0E0EBE3F0E08081482F8A81282F30E0A9
:100F300081E090E0022E02C0880F991F0A94E2F728
:100F4000842B8C9398C0ABE3B0E0EBE3F0E08081BE
:100F5000482F8A81282F30E081E090E0022E02C0E5
:100F6000880F991F0A94E2F7809584238C9383C09D
:100F70008B818130A1F4A8E3B0E0E8E3F0E0808168
:100F8000482F8A81282F30E081E090E0022E02C0B5
:100F9000880F991F0A94E2F7842B8C936CC0A8E306
:100FA000B0E0E8E3F0E08081482F8A81282F30E02C
:100FB00081E090E0022E02C0880F991F0A94E2F7A8
:100FC000809584238C9357C08B818130A1F4A5E355
:100FD000B0E0E5E3F0E08081482F8A81282F30E0FF
:100FE00081E090E0022E02C0880F991F0A94E2F778
:100FF000842B8C9340C0A5E3B0E0E5E3F0E0808172
:10100000482F8A81282F30E081E090E0022E02C034
:10101000880F991F0A94E2F7809584238C932BC044
:101020008B818130A1F4A2E3B0E0E2E3F0E08081C3
:10103000482F8A81282F30E081E090E0022E02C004
:10104000880F991F0A94E2F7842B8C9314C0A2E3B3
:10105000B0E0E2E3F0E08081482F8A81282F30E081
:1010600081E090E0022E02C0880F991F0A94E2F7F7
:10107000809584238C930F900F900F900F900F907A
:10108000CF91DF910895DF93CF9300D000D00F92DE
:10109000CDB7DEB78A836B8319828B81883008F0E5
:1010A00084C08A81843008F080C08A81282F30E093
:1010B0003D832C834C815D814130510579F18C81D8
:1010C0009D818230910534F42C813D8121153105BB
:1010D00069F06BC04C815D8142305105B9F18C8162
:1010E0009D818330910509F449C05FC0E9E3F0E0D8
:1010F0008081282F30E08B81882F90E0A90102C0E9
:10110000559547958A95E2F7CA01817090708823BA
:1011100019F081E0898349C0198247C0E6E3F0E015
:101120008081282F30E08B81882F90E0A90102C0B8
:10113000559547958A95E2F7CA018170907088238A
:1011400019F081E0898331C019822FC0E3E3F0E018
:101150008081282F30E08B81882F90E0A90102C088
:10116000559547958A95E2F7CA018170907088235A
:1011700019F081E0898319C0198217C0E0E3F0E01B
:101180008081282F30E08B81882F90E0A90102C058
:10119000559547958A95E2F7CA018170907088232A
:1011A00019F081E0898301C0198289810F900F9025
:1011B0000F900F900F90CF91DF910895DF93CF9311
:1011C00000D000D0CDB7DEB789836A8389818430AF
:1011D00090F58981282F30E03C832B838B819C8183
:1011E00081309105D1F02B813C81223031052CF4E6
:1011F0008B819C81009761F01EC02B813C81223045
:10120000310581F08B819C818330910581F013C081
:10121000EAE3F0E08A8180830EC0E7E3F0E08A81B0
:10122000808309C0E4E3F0E08A81808304C0E1E3C5
:10123000F0E08A8180830F900F900F900F90CF91F4
:10124000DF910895DF93CF9300D000D0CDB7DEB704
:1012500089836A838981843090F58981282F30E0E1
:101260003C832B838B819C8181309105D1F02B8134
:101270003C81223031052CF48B819C81009761F0F8
:101280001EC02B813C812230310581F08B819C81F5
:101290008330910581F013C0EBE3F0E08A81808315
:1012A0000EC0E8E3F0E08A81808309C0E5E3F0E066
:1012B0008A81808304C0E2E3F0E08A8180830F901A
:1012C0000F900F900F90CF91DF910895DF93CF9300
:1012D00000D000D0CDB7DEB78A8319828A818430EE
:1012E00090F58A81282F30E03C832B838B819C8171
:1012F00081309105D1F02B813C81223031052CF4D5
:101300008B819C81009761F01EC02B813C81223033
:10131000310581F08B819C818330910581F013C070
:10132000E9E3F0E0808189830EC0E6E3F0E08081AC
:10133000898309C0E3E3F0E08081898304C0E0E3AE
:10134000F0E08081898389810F900F900F900F903A
:10135000CF91DF910895DF93CF93CDB7DEB7A697F6
:101360000FB6F894DEBF0FBECDBFAFE5B0E0EFE53E
:10137000F0E0808180688C93CE010296998F888FEF
:10138000E9E7F0E0FB8FEA8FF5E0FC8FEA8DFB8D5B
:1013900000808A8D9B8D01969B8F8A8FE88DF98DB9
:1013A0000082888D998D0196998F888F9C8D9150A0
:1013B0009C8FEC8DEE2351F7CE0102960E945210C5
:1013C000CE0107969E8F8D8FE0E7F0E0F8A3EF8FB8
:1013D000F9E0F9A3EF8DF8A100808F8D98A1019617
:1013E00098A38F8FED8DFE8D00828D8D9E8D019641
:1013F0009E8F8D8F99A1915099A3E9A1EE2351F76A
:10140000CE0107960E94290ECE0140969BA38AA387
:10141000E8E6F0E0FDA3ECA3F8E0FEA3ECA1FDA15B
:1014200000808CA19DA101969DA38CA3EAA1FBA1A4
:1014300000828AA19BA101969BA38AA39EA19150A1
:101440009EA3EEA1EE2351F7CE0140960E94C30F5A
:101450000E949B0C0E94A3050E94FB0A19820E9415
:10146000EE108031E1F787E890E00E94410B0E9486
:10147000EE10898389818B3269F58CE890E027E84A
:1014800030E0B9010E94800A813031F480E20E948C
:10149000D7100E94B70AE3CF85E20E94D71080914F
:1014A0007E008F5F80937E0080917E008330B9F64E
:1014B0000E94B4051092800010927F0080917F00FE
:1014C0009091800083309105C8F30E94C00510926E
:1014D0007E00C5CF8981853111F68CE890E027E840
:1014E00030E0B9010E94800A813031F480E30E942B
:1014F000D7100E94FB0AB3CF85E20E94D710AFCF6E
:10150000DF93CF9300D000D000D0CDB7DEB79B8360
:101510008A837D836C830E94E10B198219C08981C3
:10152000282F30E08A819B81FC01E20FF31F40816C
:101530008981282F30E08C819D81FC01E20FF31F0F
:101540008081481711F01E8208C089818F5F8983CE
:101550008981853020F381E08E838E8126960FB6B7
:10156000F894DEBF0FBECDBFCF91DF910895DF931A
:10157000CF93CDB7DEB71092800010927F0081E04C
:101580000E94B60C80917F0090918000853091057B
:10159000C8F31092800010927F0080E00E94B60C89
:1015A00080917F009091800083309105C8F3109264
:1015B000800010927F0082E00E94B60C80917F0034
:1015C0009091800085309105C8F380E00E94B60CB0
:1015D000CF91DF910895DF93CF93CDB7DEB78091A0
:1015E0007F009091800001969093800080937F000F
:1015F000CF91DF910895DF93CF9300D000D000D03A
:10160000CDB7DEB7198231C00E94EE108031E1F70C
:1016100081E10E94D71087E890E00E94410B0E9470
:10162000EE108031E1F781E10E94D710CE010296E1
:101630000E94410B87E890E09E012E5F3F4FB90169
:101640000E94800A813059F480E10E94D71081E025
:101650000E94D7100E94FF0B81E0898306C080E1C1
:101660000E94D71080E00E94D7108981882361F200
:1016700026960FB6F894DEBF0FBECDBFCF91DF9197
:1016800008950F931F93DF93CF93CDB7DEB7619784
:101690000FB6F894DEBF0FBECDBF998B888B1F8627
:1016A00081C08F85282F30E0888999898C01020FAD
:1016B000131F0E94EE10F801808380E090E0A8ECF8
:1016C000B2E48B879C87AD87BE876B857C858D85D3
:1016D0009E8520E030E04AEF54E40E941F02DC01C6
:1016E000CB018F839887A987BA876F817885898591
:1016F0009A8520E030E040E85FE30E947903882388
:101700002CF481E090E09E838D833FC06F817885CB
:1017100089859A8520E03FEF4FE757E40E9419033F
:1017200018164CF56B857C858D859E8520E030E014
:1017300040E251E40E941F02DC01CB01BC01CD015B
:101740000E944900DC01CB019E838D830FC088EC91
:1017500090E09C838B838B819C810197F1F79C8324
:101760008B838D819E8101979E838D838D819E8148
:10177000009769F714C06F81788589859A850E94E2
:101780004900DC01CB019E838D838D819E819A83EC
:10179000898389819A810197F1F79A8389838F855B
:1017A0008F5F8F878F85853008F47BCF61960FB66A
:1017B000F894DEBF0FBECDBFCF91DF911F910F9187
:1017C0000895DF93CF930F92CDB7DEB7198210C083
:1017D0008981482F50E08981882F90E09C0124570F
:1017E0003F4FCA01B9010E940D0689818F5F89832D
:1017F0008981853068F30F90CF91DF910895DF9351
:10180000CF93CDB7DEB72F970FB6F894DEBF0FBEDC
:10181000CDBF1F8683C08F85482F50E08F85882FCE
:1018200090E0FC01E957FF4F2081CA01622F0E941E
:10183000CC0580E090E0A8ECB2E48B879C87AD8774
:10184000BE876B857C858D859E8520E030E04AEFE4
:1018500054E40E941F02DC01CB018F839887A98783
:10186000BA876F81788589859A8520E030E040E8E5
:101870005FE30E94790388232CF481E090E09E834B
:101880008D833FC06F81788589859A8520E03FEF01
:101890004FE757E40E94190318164CF56B857C85B9
:1018A0008D859E8520E030E040E251E40E941F02D9
:1018B000DC01CB01BC01CD010E944900DC01CB0160
:1018C0009E838D830FC088EC90E09C838B838B81FB
:1018D0009C810197F1F79C838B838D819E81019779
:1018E0009E838D838D819E81009769F714C06F81DF
:1018F000788589859A850E944900DC01CB019E8309
:101900008D838D819E819A83898389819A810197B4
:10191000F1F79A8389838F858F5F8F878F858530D5
:1019200008F479CF2F960FB6F894DEBF0FBECDBF67
:10193000CF91DF910895DF93CF93CDB7DEB783E0EA
:1019400062E041E00E946D0683E063E041E00E94B6
:101950006D0683E062E040E00E94580783E063E0A8
:1019600040E00E945807CF91DF910895DF93CF9315
:1019700000D00F92CDB7DEB789838981282F30E060
:101980003B832A838A819B818130910551F02A8192
:101990003B812230310581F08A819B810097B9F02B
:1019A00020C083E062E041E00E94580783E063E0EA
:1019B00040E00E94580715C083E062E040E00E94CA
:1019C000580783E063E041E00E9458070AC083E0C3
:1019D00062E040E00E94580783E063E040E00E943C
:1019E00058070F900F900F90CF91DF9108951F929D
:1019F0000F920FB60F9211242F933F934F935F9343
:101A00006F937F938F939F93AF93BF93EF93FF93C6
:101A1000DF93CF93CDB7DEB78091810090918200A4
:101A2000009729F0E0918100F09182000995CF9113
:101A3000DF91FF91EF91BF91AF919F918F917F9136
:101A40006F915F914F913F912F910F900FBE0F902B
:101A50001F9018951F920F920FB60F9211242F937B
:101A60003F934F935F936F937F938F939F93AF9326
:101A7000BF93EF93FF93DF93CF93CDB7DEB7809102
:101A8000810090918200009729F0E0918100F0910F
:101A900082000995CF91DF91FF91EF91BF91AF91B6
:101AA0009F918F917F916F915F914F913F912F9176
:101AB0000F900FBE0F901F9018951F920F920FB6A8
:101AC0000F9211242F933F934F935F936F937F93C4
:101AD0008F939F93AF93BF93EF93FF93DF93CF9336
:101AE000CDB7DEB78091830090918400009729F0F4
:101AF000E0918300F09184000995CF91DF91FF91EF
:101B0000EF91BF91AF919F918F917F916F915F9175
:101B10004F913F912F910F900FBE0F901F901895EE
:101B20001F920F920FB60F9211242F933F934F9352
:101B30005F936F937F938F939F93AF93BF93EF9335
:101B4000FF93DF93CF93CDB7DEB780918300909161
:101B50008400009729F0E0918300F09184000995BA
:101B6000CF91DF91FF91EF91BF91AF919F918F91B5
:101B70007F916F915F914F913F912F910F900FBE89
:101B80000F901F9018951F920F920FB60F9211246D
:101B90002F933F934F935F936F937F938F939F9375
:101BA000AF93BF93EF93FF93DF93CF93CDB7DEB7A0
:101BB0008091850090918600009729F0E091850042
:101BC000F09186000995CF91DF91FF91EF91BF9140
:101BD000AF919F918F917F916F915F914F913F91C5
:101BE0002F910F900FBE0F901F9018951F920F927C
:101BF0000FB60F9211242F933F934F935F936F93E0
:101C00007F938F939F93AF93BF93EF93FF93DF9354
:101C1000CF93CDB7DEB78091850090918600009775
:101C200029F0E0918500F09186000995CF91DF9130
:101C3000FF91EF91BF91AF919F918F917F916F91A4
:101C40005F914F913F912F910F900FBE0F901F907A
:101C50001895DF93CF9300D0CDB7DEB79A838983F1
:101C6000E981FA818081882309F059C0A3E5B0E0B9
:101C7000E3E5F0E0808180688C93A2E5B0E0E98143
:101C8000FA81828193818C93E3E5F0E01082A3E5F1
:101C9000B0E0E3E5F0E09081E981FA818681892B6B
:101CA0008C93E981FA818181882379F4A9E5B0E0F8
:101CB000E9E5F0E0808181608C93A8E5B0E0E8E59B
:101CC000F0E0808181608C9321C0E981FA8181817B
:101CD0008130E1F4A3E5B0E0E3E5F0E080818860E5
:101CE0008C93ACE5B0E0E981FA81848195818C9395
:101CF000A9E5B0E0E9E5F0E0808182608C93A8E599
:101D0000B0E0E8E5F0E0808182608C93E981FA81BF
:101D1000878190859093820080938100C4C0E9817F
:101D2000FA818081813009F060C0EFE4F0E0108238
:101D3000AFE4B0E0EFE4F0E0808188608C93AFE442
:101D4000B0E0EFE4F0E0808184608C93AEE4B0E03A
:101D5000E981FA8186818C93ACE4B0E0E981FA8173
:101D60008281938111969C938E93E981FA8181817E
:101D7000882379F4A9E5B0E0E9E5F0E080818460AA
:101D80008C93A8E5B0E0E8E5F0E0808184608C9376
:101D900023C0E981FA8181818130F1F4AEE4B0E0C1
:101DA000EEE4F0E0808188608C93AAE4B0E0E98101
:101DB000FA818481958111969C938E93A9E5B0E078
:101DC000E9E5F0E0808180618C93A8E5B0E0E8E58A
:101DD000F0E0808180618C93E981FA818781908530
:101DE00090938400809383005EC0E981FA818081B2
:101DF000823009F058C0A5E4B0E0E5E4F0E080816D
:101E000080688C93A4E4B0E0E981FA8182819381B7
:101E10008C93E5E4F0E01082A5E4B0E0E5E4F0E0C6
:101E20009081E981FA818681892B8C93E981FA81FD
:101E30008181882379F4A9E5B0E0E9E5F0E08081CB
:101E400080648C93A8E5B0E0E8E5F0E080818064F0
:101E50008C9321C0E981FA8181818130E1F4A3E58D
:101E6000B0E0E3E5F0E0808188608C93A3E4B0E02B
:101E7000E981FA81848195818C93A9E5B0E0E9E557
:101E8000F0E0808180688C93A8E5B0E0E8E5F0E0C0
:101E9000808180688C93E981FA8187819085909315
:101EA0008600809385000F900F90CF91DF91089569
:101EB000DF93CF930F92CDB7DEB7898389818823D3
:101EC000E1F4E3E5F0E01082E2E5F0E01082ECE519
:101ED000F0E01082A9E5B0E0E9E5F0E080818D7FD7
:101EE0008C93A9E5B0E0E9E5F0E080818E7F8C93EA
:101EF000109282001092810042C08981813009F5E0
:101F0000EFE4F0E01082EEE4F0E01082ECE4F0E0C8
:101F100011821082A9E5B0E0E9E5F0E080818B7FD5
:101F20008C93EAE4F0E011821082A9E5B0E0E9E5E3
:101F3000F0E080818F7E8C93109284001092830059
:101F40001EC089818230D9F4E5E4F0E01082E4E437
:101F5000F0E01082E3E4F0E01082A9E5B0E0E9E50A
:101F6000F0E080818F778C93A9E5B0E0E9E5F0E0BF
:101F700080818F7B8C9310928600109285000F9049
:101F8000CF91DF910895DF93CF9300D0CDB7DEB727
:101F90009A83898320E230E0E981FA818481958106
:101FA000A681B781F9018083E1E2F0E0108222E2AC
:101FB00030E0E981FA8180819181A281B381880F2B
:101FC000F9018083E6E5F0E084E080830F900F90D4
:101FD000CF91DF910895DF93CF93CDB7DEB7E6E5DC
:101FE000F0E084EA8083E6E5F0E080818823DCF796
:101FF000CF91DF910895DF93CF93CDB7DEB7E6E5BC
:10200000F0E084E98083CF91DF910895DF93CF934F
:102010000F92CDB7DEB78983E3E2F0E08981808358
:10202000E6E5F0E084E88083E6E5F0E0808188235F
:10203000DCF70F90CF91DF910895DF93CF93CDB769
:10204000DEB7E6E5F0E084EC8083E6E5F0E0808151
:102050008823DCF7E3E2F0E08081CF91DF910895FF
:10206000DF93CF93CDB7DEB7E6E5F0E084E8808379
:10207000E6E5F0E080818823DCF7E3E2F0E08081B0
:10208000CF91DF910895DF93CF930F92CDB7DEB755
:10209000E1E2F0E08081887F898389810F90CF9190
:1020A000DF910895DF93CF9300D000D0CDB7DEB796
:1020B0009C838B831A821982EBE2F0E082E08083BA
:1020C000EAE2F0E088E18083A0E4B0E0E0E4F0E060
:1020D000808180688C93A0E4B0E0E0E4F0E080814F
:1020E000282F2F7CEB81FC818181882F90E08295C5
:1020F0009295907F9827807F9827822B8C93A0E4DD
:10210000B0E0E0E4F0E08081282F277FEB81FC81C4
:102110008281882F90E0880F991F880F991F880F60
:10212000991F822B8C93A0E4B0E0E0E4F0E0808182
:10213000282F297FEB81FC818081882F90E0880FF8
:10214000991F822B8C93EB81FC8183819481CC013C
:10215000A0E0B0E0880F991FAA1FBB1F880F991F2E
:10216000AA1FBB1F880F991FAA1FBB1F9C01AD018F
:1021700080E092E1AAE7B0E0BC01CD010E946911C4
:10218000DA01C90101979A838983E0E4F0E089814B
:102190009A81892F99278083E9E2F0E08981808301
:1021A0000F900F900F900F90CF91DF910895DF93D4
:1021B000CF930F92CDB7DEB78983EBE2F0E0808159
:1021C000882F90E0807290700097B9F3ECE2F0E015
:1021D000898180830F90CF91DF910895DF93CF9312
:1021E000CDB7DEB7EBE2F0E080818823DCF7ECE2EC
:1021F000F0E08081CF91DF910895DF93CF9300D0FD
:102200000F92CDB7DEB79B838A8319820EC0898176
:10221000282F30E08A819B81FC01E20FF31F80812F
:102220000E94D71089818F5F89838981282F30E0B0
:102230008A819B81FC01E20FF31F8081882339F79B
:102240000F900F900F90CF91DF9108950F931F93F0
:10225000DF93CF9300D00F92CDB7DEB79B838A83F5
:1022600019828981282F30E08A819B818C01020F9D
:10227000131F0E94EE10F80180830FC089818F5FC9
:1022800089838981282F30E08A819B818C01020F0C
:10229000131F0E94EE10F80180838981282F30E0FF
:1022A0008A819B81FC01E20FF31F8081833231F729
:1022B0008981282F30E08A819B81FC01E20FF31F86
:1022C00010820F900F900F90CF91DF911F910F917F
:1022D0000895A1E21A2EAA1BBB1BFD010DC0AA1F67
:1022E000BB1FEE1FFF1FA217B307E407F50720F07F
:1022F000A21BB30BE40BF50B661F771F881F991FFA
:102300001A9469F760957095809590959B01AC0142
:10231000BD01CF0108952F923F924F925F926F922D
:102320007F928F929F92AF92BF92CF92DF92EF9265
:10233000FF920F931F93CF93DF93CDB7DEB7CA1BE6
:10234000DB0B0FB6F894DEBF0FBECDBF09942A8811
:10235000398848885F846E847D848C849B84AA84B9
:10236000B984C884DF80EE80FD800C811B81AA8146
:10237000B981CE0FD11D0FB6F894DEBF0FBECDBF11
:08238000ED010895F894FFCF70
:102388000000000000000000020000000100000042
:0E23980001010000851E05EB0A0300008025F0
:00000001FF
